{
  "contractName": "CrudApp",
  "abi": [
    {
      "constant": true,
      "inputs": [
        {
          "name": "",
          "type": "uint256"
        }
      ],
      "name": "countries",
      "outputs": [
        {
          "name": "name",
          "type": "string"
        },
        {
          "name": "leader",
          "type": "string"
        },
        {
          "name": "population",
          "type": "uint256"
        }
      ],
      "payable": false,
      "stateMutability": "view",
      "type": "function"
    },
    {
      "constant": true,
      "inputs": [],
      "name": "totalCountries",
      "outputs": [
        {
          "name": "",
          "type": "uint256"
        }
      ],
      "payable": false,
      "stateMutability": "view",
      "type": "function"
    },
    {
      "anonymous": false,
      "inputs": [
        {
          "indexed": false,
          "name": "countryName",
          "type": "string"
        },
        {
          "indexed": false,
          "name": "leader",
          "type": "string"
        },
        {
          "indexed": false,
          "name": "population",
          "type": "uint256"
        }
      ],
      "name": "CountryEvent",
      "type": "event"
    },
    {
      "anonymous": false,
      "inputs": [
        {
          "indexed": false,
          "name": "countryName",
          "type": "string"
        },
        {
          "indexed": false,
          "name": "leader",
          "type": "string"
        }
      ],
      "name": "LeaderUpdated",
      "type": "event"
    },
    {
      "anonymous": false,
      "inputs": [
        {
          "indexed": false,
          "name": "countryName",
          "type": "string"
        }
      ],
      "name": "CountryDelete",
      "type": "event"
    },
    {
      "constant": false,
      "inputs": [],
      "name": "CurdApp",
      "outputs": [],
      "payable": false,
      "stateMutability": "nonpayable",
      "type": "function"
    },
    {
      "constant": false,
      "inputs": [
        {
          "name": "countryName",
          "type": "string"
        },
        {
          "name": "leader",
          "type": "string"
        },
        {
          "name": "population",
          "type": "uint256"
        }
      ],
      "name": "insert",
      "outputs": [
        {
          "name": "total",
          "type": "uint256"
        }
      ],
      "payable": false,
      "stateMutability": "nonpayable",
      "type": "function"
    },
    {
      "constant": false,
      "inputs": [
        {
          "name": "countryName",
          "type": "string"
        },
        {
          "name": "newLeader",
          "type": "string"
        }
      ],
      "name": "updateLeader",
      "outputs": [
        {
          "name": "success",
          "type": "bool"
        }
      ],
      "payable": false,
      "stateMutability": "nonpayable",
      "type": "function"
    },
    {
      "constant": false,
      "inputs": [
        {
          "name": "countryName",
          "type": "string"
        }
      ],
      "name": "deleteCountry",
      "outputs": [
        {
          "name": "success",
          "type": "bool"
        }
      ],
      "payable": false,
      "stateMutability": "nonpayable",
      "type": "function"
    },
    {
      "constant": true,
      "inputs": [
        {
          "name": "countryName",
          "type": "string"
        }
      ],
      "name": "getCountry",
      "outputs": [
        {
          "name": "name",
          "type": "string"
        },
        {
          "name": "leader",
          "type": "string"
        },
        {
          "name": "population",
          "type": "uint256"
        }
      ],
      "payable": false,
      "stateMutability": "view",
      "type": "function"
    },
    {
      "constant": true,
      "inputs": [
        {
          "name": "a",
          "type": "string"
        },
        {
          "name": "b",
          "type": "string"
        }
      ],
      "name": "compareStrings",
      "outputs": [
        {
          "name": "",
          "type": "bool"
        }
      ],
      "payable": false,
      "stateMutability": "view",
      "type": "function"
    },
    {
      "constant": true,
      "inputs": [],
      "name": "getArrayLength",
      "outputs": [
        {
          "name": "length",
          "type": "uint256"
        }
      ],
      "payable": false,
      "stateMutability": "view",
      "type": "function"
    }
  ],
  "bytecode": "0x608060405234801561001057600080fd5b506114c3806100206000396000f300608060405260043610610099576000357c0100000000000000000000000000000000000000000000000000000000900463ffffffff1680630849cc991461009e57806308e9daa5146100c95780631ac9ddbb146101e257806362738129146101f957806381ba02be14610224578063848924cb146102eb578063bed34bba14610440578063c1356d2614610507578063cae65058146105d4575b600080fd5b3480156100aa57600080fd5b506100b3610655565b6040518082815260200191505060405180910390f35b3480156100d557600080fd5b506100f460048036038101908080359060200190929190505050610661565b604051808060200180602001848152602001838103835286818151815260200191508051906020019080838360005b8381101561013e578082015181840152602081019050610123565b50505050905090810190601f16801561016b5780820380516001836020036101000a031916815260200191505b50838103825285818151815260200191508051906020019080838360005b838110156101a4578082015181840152602081019050610189565b50505050905090810190601f1680156101d15780820380516001836020036101000a031916815260200191505b509550505050505060405180910390f35b3480156101ee57600080fd5b506101f76107ca565b005b34801561020557600080fd5b5061020e6107d4565b6040518082815260200191505060405180910390f35b34801561023057600080fd5b506102d1600480360381019080803590602001908201803590602001908080601f0160208091040260200160405190810160405280939291908181526020018383808284378201915050505050509192919290803590602001908201803590602001908080601f01602080910402602001604051908101604052809392919081815260200183838082843782019150505050505091929192905050506107da565b604051808215151515815260200191505060405180910390f35b3480156102f757600080fd5b50610352600480360381019080803590602001908201803590602001908080601f0160208091040260200160405190810160405280939291908181526020018383808284378201915050505050509192919290505050610a13565b604051808060200180602001848152602001838103835286818151815260200191508051906020019080838360005b8381101561039c578082015181840152602081019050610381565b50505050905090810190601f1680156103c95780820380516001836020036101000a031916815260200191505b50838103825285818151815260200191508051906020019080838360005b838110156104025780820151818401526020810190506103e7565b50505050905090810190601f16801561042f5780820380516001836020036101000a031916815260200191505b509550505050505060405180910390f35b34801561044c57600080fd5b506104ed600480360381019080803590602001908201803590602001908080601f0160208091040260200160405190810160405280939291908181526020018383808284378201915050505050509192919290803590602001908201803590602001908080601f0160208091040260200160405190810160405280939291908181526020018383808284378201915050505050509192919290505050610cad565b604051808215151515815260200191505060405180910390f35b34801561051357600080fd5b506105be600480360381019080803590602001908201803590602001908080601f0160208091040260200160405190810160405280939291908181526020018383808284378201915050505050509192919290803590602001908201803590602001908080601f016020809104026020016040519081016040528093929190818152602001838380828437820191505050505050919291929080359060200190929190505050610d86565b6040518082815260200191505060405180910390f35b3480156105e057600080fd5b5061063b600480360381019080803590602001908201803590602001908080601f0160208091040260200160405190810160405280939291908181526020018383808284378201915050505050509192919290505050610f51565b604051808215151515815260200191505060405180910390f35b60008080549050905090565b60008181548110151561067057fe5b9060005260206000209060030201600091509050806000018054600181600116156101000203166002900480601f01602080910402602001604051908101604052809291908181526020018280546001816001161561010002031660029004801561071c5780601f106106f15761010080835404028352916020019161071c565b820191906000526020600020905b8154815290600101906020018083116106ff57829003601f168201915b505050505090806001018054600181600116156101000203166002900480601f0160208091040260200160405190810160405280929190818152602001828054600181600116156101000203166002900480156107ba5780601f1061078f576101008083540402835291602001916107ba565b820191906000526020600020905b81548152906001019060200180831161079d57829003601f168201915b5050505050908060020154905083565b6000600181905550565b60015481565b600080600090505b600154811015610a07576108ae6000828154811015156107fe57fe5b90600052602060002090600302016000018054600181600116156101000203166002900480601f0160208091040260200160405190810160405280929190818152602001828054600181600116156101000203166002900480156108a35780601f10610878576101008083540402835291602001916108a3565b820191906000526020600020905b81548152906001019060200180831161088657829003601f168201915b505050505085610cad565b156109fa57826000828154811015156108c357fe5b906000526020600020906003020160010190805190602001906108e7929190611208565b507fdcbffcd2bd990a26d28efebebb6f9a7a35f2abf2f0e25720c56a457fce2211588484604051808060200180602001838103835285818151815260200191508051906020019080838360005b8381101561094f578082015181840152602081019050610934565b50505050905090810190601f16801561097c5780820380516001836020036101000a031916815260200191505b50838103825284818151815260200191508051906020019080838360005b838110156109b557808201518184015260208101905061099a565b50505050905090810190601f1680156109e25780820380516001836020036101000a031916815260200191505b5094505050505060405180910390a160019150610a0c565b80806001019150506107e2565b600091505b5092915050565b606080600080600090505b600154811015610ca057610aea600082815481101515610a3a57fe5b90600052602060002090600302016000018054600181600116156101000203166002900480601f016020809104026020016040519081016040528092919081815260200182805460018160011615610100020316600290048015610adf5780601f10610ab457610100808354040283529160200191610adf565b820191906000526020600020905b815481529060010190602001808311610ac257829003601f168201915b505050505086610cad565b15610c9357600081815481101515610afe57fe5b9060005260206000209060030201600001600082815481101515610b1e57fe5b9060005260206000209060030201600101600083815481101515610b3e57fe5b906000526020600020906003020160020154828054600181600116156101000203166002900480601f016020809104026020016040519081016040528092919081815260200182805460018160011615610100020316600290048015610be55780601f10610bba57610100808354040283529160200191610be5565b820191906000526020600020905b815481529060010190602001808311610bc857829003601f168201915b50505050509250818054600181600116156101000203166002900480601f016020809104026020016040519081016040528092919081815260200182805460018160011615610100020316600290048015610c815780601f10610c5657610100808354040283529160200191610c81565b820191906000526020600020905b815481529060010190602001808311610c6457829003601f168201915b50505050509150935093509350610ca5565b8080600101915050610a1e565b600080fd5b509193909250565b6000816040518082805190602001908083835b602083101515610ce55780518252602082019150602081019050602083039250610cc0565b6001836020036101000a038019825116818451168082178552505050505050905001915050604051809103902060001916836040518082805190602001908083835b602083101515610d4c5780518252602082019150602081019050602083039250610d27565b6001836020036101000a03801982511681845116808217855250505050505090500191505060405180910390206000191614905092915050565b6000610d90611288565b606060405190810160405280868152602001858152602001848152509050600081908060018154018082558091505090600182039060005260206000209060030201600090919290919091506000820151816000019080519060200190610df89291906112aa565b506020820151816001019080519060200190610e159291906112aa565b50604082015181600201555050506001600081548092919060010191905055507f0468dc69df7bee8f1d38fbb57d4c42ac20476b6d66c4477d41c677b7e2d63893858585604051808060200180602001848152602001838103835286818151815260200191508051906020019080838360005b83811015610ea3578082015181840152602081019050610e88565b50505050905090810190601f168015610ed05780820380516001836020036101000a031916815260200191505b50838103825285818151815260200191508051906020019080838360005b83811015610f09578082015181840152602081019050610eee565b50505050905090810190601f168015610f365780820380516001836020036101000a031916815260200191505b509550505050505060405180910390a1819150509392505050565b6000806000600154111515610f6557600080fd5b600090505b6001548110156111fd57611036600082815481101515610f8657fe5b90600052602060002090600302016000018054600181600116156101000203166002900480601f01602080910402602001604051908101604052809291908181526020018280546001816001161561010002031660029004801561102b5780601f106110005761010080835404028352916020019161102b565b820191906000526020600020905b81548152906001019060200180831161100e57829003601f168201915b505050505084610cad565b156111f0576000600180540381548110151561104e57fe5b906000526020600020906003020160008281548110151561106b57fe5b9060005260206000209060030201600082018160000190805460018160011615610100020316600290046110a092919061132a565b50600182018160010190805460018160011615610100020316600290046110c892919061132a565b5060028201548160020155905050600060018054038154811015156110e957fe5b90600052602060002090600302016000808201600061110891906113b1565b60018201600061111891906113b1565b6002820160009055505060016000815480929190600190039190505550600080548091906001900361114a91906113f9565b507f1aae94a171c3e578099f7103bbb8a169533e0d22f84eb9807747a1c5bebbbc41836040518080602001828103825283818151815260200191508051906020019080838360005b838110156111ad578082015181840152602081019050611192565b50505050905090810190601f1680156111da5780820380516001836020036101000a031916815260200191505b509250505060405180910390a160019150611202565b8080600101915050610f6a565b600091505b50919050565b828054600181600116156101000203166002900490600052602060002090601f016020900481019282601f1061124957805160ff1916838001178555611277565b82800160010185558215611277579182015b8281111561127657825182559160200191906001019061125b565b5b509050611284919061142b565b5090565b6060604051908101604052806060815260200160608152602001600081525090565b828054600181600116156101000203166002900490600052602060002090601f016020900481019282601f106112eb57805160ff1916838001178555611319565b82800160010185558215611319579182015b828111156113185782518255916020019190600101906112fd565b5b509050611326919061142b565b5090565b828054600181600116156101000203166002900490600052602060002090601f016020900481019282601f1061136357805485556113a0565b828001600101855582156113a057600052602060002091601f016020900482015b8281111561139f578254825591600101919060010190611384565b5b5090506113ad919061142b565b5090565b50805460018160011615610100020316600290046000825580601f106113d757506113f6565b601f0160209004906000526020600020908101906113f5919061142b565b5b50565b815481835581811115611426576003028160030283600052602060002091820191016114259190611450565b5b505050565b61144d91905b80821115611449576000816000905550600101611431565b5090565b90565b61149491905b80821115611490576000808201600061146f91906113b1565b60018201600061147f91906113b1565b600282016000905550600301611456565b5090565b905600a165627a7a7230582021f71629e422b2da2050b4dc90f7baeee513fc4614df6f85112693fc65555c200029",
  "source": "pragma solidity ^0.4.23;\n\ncontract CrudApp {\n    \n   struct country{\n      string name;\n      string leader;\n      uint256 population;\n   }\n  \n   country[] public countries; \n\n   uint256 public totalCountries;\n  \n  \n   function CurdApp() public{\n       totalCountries = 0;\n   }\n\n   event CountryEvent(string countryName , string leader, uint256 population);\n   \n   event LeaderUpdated(string countryName , string leader);\n\n   event CountryDelete(string countryName);\n\n    \n   function insert( string countryName , string leader , uint256 population) public returns (uint256 total){\n        country memory newCountry = country(countryName , leader, population);\n        countries.push(newCountry);\n        totalCountries++;\n        //emit event\n        emit CountryEvent (countryName, leader, population);\n        return total;\n   }\n   \n   function updateLeader(string countryName, string newLeader) public returns (bool success){\n       //This has a problem we need loop\n       for(uint256 i =0; i< totalCountries; i++){\n           if(compareStrings(countries[i].name ,countryName)){\n              countries[i].leader = newLeader;\n              emit LeaderUpdated(countryName, newLeader);\n              return true;\n           }\n       }\n       return false;\n   }\n   \n   function deleteCountry(string countryName) public returns(bool success){\n        require(totalCountries > 0);\n        for(uint256 i =0; i< totalCountries; i++){\n           if(compareStrings(countries[i].name , countryName)){\n              countries[i] = countries[totalCountries-1]; // pushing last into current arrray index which we gonna delete\n              delete countries[totalCountries-1]; // now deleteing last index\n              totalCountries--; //total count decrease\n              countries.length--; // array length decrease\n              //emit event\n              emit CountryDelete(countryName);\n              return true;\n           }\n       }\n       return false;\n   }\n   \n   \n   function getCountry(string countryName) public view returns(string name , string leader , uint256 population){\n        for(uint256 i =0; i< totalCountries; i++){\n           if(compareStrings(countries[i].name, countryName)){\n              //emit event\n              return (countries[i].name , countries[i].leader , countries[i].population);\n           }\n       }\n       revert();\n   }     \n   \n   function compareStrings (string a, string b) public view returns (bool){\n       return keccak256(a) == keccak256(b);\n   }\n   \n   \n   function getArrayLength() public view returns (uint256 length){\n      return countries.length;\n   }\n}",
  "sourcePath": "/home/batman/code/solidityCrud/contracts/CrudApp.sol",
  "compiler": {
    "name": "solc",
    "version": "0.4.24+commit.e67f0147.Emscripten.clang"
  },
  "schemaVersion": "2.0.1",
  "updatedAt": "2018-09-30T12:25:23.269Z"
}