{
  "contractName": "Crud",
  "abi": [
    {
      "anonymous": false,
      "inputs": [
        {
          "indexed": true,
          "name": "userAddress",
          "type": "address"
        },
        {
          "indexed": false,
          "name": "index",
          "type": "uint256"
        },
        {
          "indexed": false,
          "name": "userName",
          "type": "string"
        },
        {
          "indexed": false,
          "name": "country",
          "type": "string"
        }
      ],
      "name": "userEvent",
      "type": "event"
    },
    {
      "constant": true,
      "inputs": [
        {
          "name": "userAddress",
          "type": "address"
        }
      ],
      "name": "isUser",
      "outputs": [
        {
          "name": "isExist",
          "type": "bool"
        }
      ],
      "payable": false,
      "stateMutability": "view",
      "type": "function"
    },
    {
      "constant": false,
      "inputs": [
        {
          "name": "userAddress",
          "type": "address"
        },
        {
          "name": "userName",
          "type": "string"
        },
        {
          "name": "country",
          "type": "string"
        }
      ],
      "name": "insertUser",
      "outputs": [
        {
          "name": "index",
          "type": "uint256"
        }
      ],
      "payable": false,
      "stateMutability": "nonpayable",
      "type": "function"
    },
    {
      "constant": true,
      "inputs": [
        {
          "name": "userAddress",
          "type": "address"
        }
      ],
      "name": "getUser",
      "outputs": [
        {
          "name": "userName",
          "type": "string"
        },
        {
          "name": "country",
          "type": "string"
        },
        {
          "name": "index",
          "type": "uint256"
        }
      ],
      "payable": false,
      "stateMutability": "view",
      "type": "function"
    },
    {
      "constant": false,
      "inputs": [
        {
          "name": "userAddress",
          "type": "address"
        },
        {
          "name": "userName",
          "type": "string"
        }
      ],
      "name": "updateUserName",
      "outputs": [
        {
          "name": "success",
          "type": "bool"
        }
      ],
      "payable": false,
      "stateMutability": "nonpayable",
      "type": "function"
    },
    {
      "constant": true,
      "inputs": [],
      "name": "getUserCount",
      "outputs": [
        {
          "name": "count",
          "type": "uint256"
        }
      ],
      "payable": false,
      "stateMutability": "view",
      "type": "function"
    },
    {
      "constant": true,
      "inputs": [
        {
          "name": "index",
          "type": "uint256"
        }
      ],
      "name": "getUserAtIndex",
      "outputs": [
        {
          "name": "userAddress",
          "type": "address"
        }
      ],
      "payable": false,
      "stateMutability": "view",
      "type": "function"
    }
  ],
  "bytecode": "0x608060405234801561001057600080fd5b50610d54806100206000396000f300608060405260043610610078576000357c0100000000000000000000000000000000000000000000000000000000900463ffffffff1680634209fff11461007d5780636f77926b146100d8578063ad09e22b14610207578063b5cb15f7146102ea578063dcc9cad314610315578063ffcc7bbf146103b6575b600080fd5b34801561008957600080fd5b506100be600480360381019080803573ffffffffffffffffffffffffffffffffffffffff169060200190929190505050610423565b604051808215151515815260200191505060405180910390f35b3480156100e457600080fd5b50610119600480360381019080803573ffffffffffffffffffffffffffffffffffffffff1690602001909291905050506104ec565b604051808060200180602001848152602001838103835286818151815260200191508051906020019080838360005b83811015610163578082015181840152602081019050610148565b50505050905090810190601f1680156101905780820380516001836020036101000a031916815260200191505b50838103825285818151815260200191508051906020019080838360005b838110156101c95780820151818401526020810190506101ae565b50505050905090810190601f1680156101f65780820380516001836020036101000a031916815260200191505b509550505050505060405180910390f35b34801561021357600080fd5b506102d4600480360381019080803573ffffffffffffffffffffffffffffffffffffffff169060200190929190803590602001908201803590602001908080601f0160208091040260200160405190810160405280939291908181526020018383808284378201915050505050509192919290803590602001908201803590602001908080601f016020809104026020016040519081016040528093929190818152602001838380828437820191505050505050919291929050505061070e565b6040518082815260200191505060405180910390f35b3480156102f657600080fd5b506102ff6109f7565b6040518082815260200191505060405180910390f35b34801561032157600080fd5b5061039c600480360381019080803573ffffffffffffffffffffffffffffffffffffffff169060200190929190803590602001908201803590602001908080601f0160208091040260200160405190810160405280939291908181526020018383808284378201915050505050509192919290505050610a04565b604051808215151515815260200191505060405180910390f35b3480156103c257600080fd5b506103e160048036038101908080359060200190929190505050610c40565b604051808273ffffffffffffffffffffffffffffffffffffffff1673ffffffffffffffffffffffffffffffffffffffff16815260200191505060405180910390f35b600080600180549050141561043b57600090506104e7565b8173ffffffffffffffffffffffffffffffffffffffff1660016000808573ffffffffffffffffffffffffffffffffffffffff1673ffffffffffffffffffffffffffffffffffffffff168152602001908152602001600020600201548154811015156104a257fe5b9060005260206000200160009054906101000a900473ffffffffffffffffffffffffffffffffffffffff1673ffffffffffffffffffffffffffffffffffffffff161490505b919050565b60608060006104fa84610423565b151561050557600080fd5b6000808573ffffffffffffffffffffffffffffffffffffffff1673ffffffffffffffffffffffffffffffffffffffff1681526020019081526020016000206000016000808673ffffffffffffffffffffffffffffffffffffffff1673ffffffffffffffffffffffffffffffffffffffff1681526020019081526020016000206001016000808773ffffffffffffffffffffffffffffffffffffffff1673ffffffffffffffffffffffffffffffffffffffff16815260200190815260200160002060020154828054600181600116156101000203166002900480601f01602080910402602001604051908101604052809291908181526020018280546001816001161561010002031660029004801561065e5780601f106106335761010080835404028352916020019161065e565b820191906000526020600020905b81548152906001019060200180831161064157829003601f168201915b50505050509250818054600181600116156101000203166002900480601f0160208091040260200160405190810160405280929190818152602001828054600181600116156101000203166002900480156106fa5780601f106106cf576101008083540402835291602001916106fa565b820191906000526020600020905b8154815290600101906020018083116106dd57829003601f168201915b505050505091509250925092509193909250565b600061071984610423565b15151561072557600080fd5b826000808673ffffffffffffffffffffffffffffffffffffffff1673ffffffffffffffffffffffffffffffffffffffff168152602001908152602001600020600001908051906020019061077a929190610c83565b50816000808673ffffffffffffffffffffffffffffffffffffffff1673ffffffffffffffffffffffffffffffffffffffff16815260200190815260200160002060010190805190602001906107d0929190610c83565b506001808590806001815401808255809150509060018203906000526020600020016000909192909190916101000a81548173ffffffffffffffffffffffffffffffffffffffff021916908373ffffffffffffffffffffffffffffffffffffffff160217905550036000808673ffffffffffffffffffffffffffffffffffffffff1673ffffffffffffffffffffffffffffffffffffffff168152602001908152602001600020600201819055508373ffffffffffffffffffffffffffffffffffffffff167f5e85c9460612de58e98b152d03bf70fd87d4f578262de86d9cea32e735d874266000808773ffffffffffffffffffffffffffffffffffffffff1673ffffffffffffffffffffffffffffffffffffffff168152602001908152602001600020600201548585604051808481526020018060200180602001838103835285818151815260200191508051906020019080838360005b83811015610943578082015181840152602081019050610928565b50505050905090810190601f1680156109705780820380516001836020036101000a031916815260200191505b50838103825284818151815260200191508051906020019080838360005b838110156109a957808201518184015260208101905061098e565b50505050905090810190601f1680156109d65780820380516001836020036101000a031916815260200191505b509550505050505060405180910390a2600180805490500390509392505050565b6000600180549050905090565b6000610a0f83610423565b1515610a1a57600080fd5b816000808573ffffffffffffffffffffffffffffffffffffffff1673ffffffffffffffffffffffffffffffffffffffff1681526020019081526020016000206000019080519060200190610a6f929190610c83565b508273ffffffffffffffffffffffffffffffffffffffff167f5e85c9460612de58e98b152d03bf70fd87d4f578262de86d9cea32e735d874266000808673ffffffffffffffffffffffffffffffffffffffff1673ffffffffffffffffffffffffffffffffffffffff16815260200190815260200160002060020154846000808873ffffffffffffffffffffffffffffffffffffffff1673ffffffffffffffffffffffffffffffffffffffff168152602001908152602001600020600101604051808481526020018060200180602001838103835285818151815260200191508051906020019080838360005b83811015610b76578082015181840152602081019050610b5b565b50505050905090810190601f168015610ba35780820380516001836020036101000a031916815260200191505b50838103825284818154600181600116156101000203166002900481526020019150805460018160011615610100020316600290048015610c255780601f10610bfa57610100808354040283529160200191610c25565b820191906000526020600020905b815481529060010190602001808311610c0857829003601f168201915b50509550505050505060405180910390a26001905092915050565b6000600182815481101515610c5157fe5b9060005260206000200160009054906101000a900473ffffffffffffffffffffffffffffffffffffffff169050919050565b828054600181600116156101000203166002900490600052602060002090601f016020900481019282601f10610cc457805160ff1916838001178555610cf2565b82800160010185558215610cf2579182015b82811115610cf1578251825591602001919060010190610cd6565b5b509050610cff9190610d03565b5090565b610d2591905b80821115610d21576000816000905550600101610d09565b5090565b905600a165627a7a72305820211b54c319313005b138893661823fc9c7dcbcfa85e6b86706caa9b53c179db50029",
  "source": "pragma solidity ^0.4.23;\n\ncontract Crud {\n\n   struct userStruct {\n       string userName; \n       string country; \n       uint index; \n   }\n\n    mapping(address => userStruct) private userStructs; \n    address[] private userIndex; \n\n    event userEvent(address indexed userAddress, uint index, string userName, string country);\n\n   function isUser(address userAddress) public constant returns(bool isExist){\n   if(userIndex.length == 0) return false; \n       return (userIndex[userStructs[userAddress].index] == userAddress);\n    }\n\n\n\n    function insertUser(\n        address userAddress,\n        string userName,  \t \t\n        string country)  public returns(uint index){\n    require(!isUser(userAddress));\n    userStructs[userAddress].userName = userName;\n    userStructs[userAddress].country = country;\n    userStructs[userAddress].index = userIndex.push(userAddress)-1; \n    emit userEvent(\n    userAddress,\n    userStructs[userAddress].index,\n    userName,\n    country);\n    return userIndex.length-1;\n    }\n\n\n\n    function getUser(address userAddress)\n    public\n    constant\n    returns(string userName, string country, uint index){\n    require(isUser(userAddress));\n    return(\n    userStructs[userAddress].userName,\n    userStructs[userAddress].country,\n    userStructs[userAddress].index);\n    }\n\n\n    function updateUserName(address userAddress, string userName)\n    public\n    returns(bool success){\n    require(isUser(userAddress));\n    userStructs[userAddress].userName = userName;\n    emit userEvent(\n    userAddress,\n    userStructs[userAddress].index,\n    userName,\n    userStructs[userAddress].country);\n    return true;\n    }\n\n\n    function getUserCount()\n    public\n    constant\n    returns(uint count){\n    return userIndex.length; \n    }\n    \n    function getUserAtIndex(uint index)\n    public\n    constant\n    returns(address userAddress){\n    return userIndex[index];\n    }\n\n}",
  "sourcePath": "/home/batman/code/solidityCrud/contracts/Crud.sol",
  "compiler": {
    "name": "solc",
    "version": "0.4.24+commit.e67f0147.Emscripten.clang"
  },
  "schemaVersion": "2.0.1",
  "updatedAt": "2018-09-30T10:14:00.718Z"
}