{
  "contractName": "CrudApp",
  "abi": [
    {
      "constant": true,
      "inputs": [
        {
          "name": "",
          "type": "uint256"
        }
      ],
      "name": "countries",
      "outputs": [
        {
          "name": "name",
          "type": "string"
        },
        {
          "name": "leader",
          "type": "string"
        },
        {
          "name": "population",
          "type": "uint256"
        }
      ],
      "payable": false,
      "stateMutability": "view",
      "type": "function"
    },
    {
      "constant": true,
      "inputs": [],
      "name": "totalCountries",
      "outputs": [
        {
          "name": "",
          "type": "uint256"
        }
      ],
      "payable": false,
      "stateMutability": "view",
      "type": "function"
    },
    {
      "inputs": [],
      "payable": false,
      "stateMutability": "nonpayable",
      "type": "constructor"
    },
    {
      "anonymous": false,
      "inputs": [
        {
          "indexed": false,
          "name": "countryName",
          "type": "string"
        },
        {
          "indexed": false,
          "name": "leader",
          "type": "string"
        },
        {
          "indexed": false,
          "name": "population",
          "type": "uint256"
        }
      ],
      "name": "CountryEvent",
      "type": "event"
    },
    {
      "anonymous": false,
      "inputs": [
        {
          "indexed": false,
          "name": "countryName",
          "type": "string"
        },
        {
          "indexed": false,
          "name": "leader",
          "type": "string"
        }
      ],
      "name": "LeaderUpdated",
      "type": "event"
    },
    {
      "anonymous": false,
      "inputs": [
        {
          "indexed": false,
          "name": "countryName",
          "type": "string"
        }
      ],
      "name": "CountryDelete",
      "type": "event"
    },
    {
      "constant": false,
      "inputs": [
        {
          "name": "countryName",
          "type": "string"
        },
        {
          "name": "leader",
          "type": "string"
        },
        {
          "name": "population",
          "type": "uint256"
        }
      ],
      "name": "insert",
      "outputs": [
        {
          "name": "total",
          "type": "uint256"
        }
      ],
      "payable": false,
      "stateMutability": "nonpayable",
      "type": "function"
    },
    {
      "constant": false,
      "inputs": [
        {
          "name": "countryName",
          "type": "string"
        },
        {
          "name": "newLeader",
          "type": "string"
        }
      ],
      "name": "updateLeader",
      "outputs": [
        {
          "name": "success",
          "type": "bool"
        }
      ],
      "payable": false,
      "stateMutability": "nonpayable",
      "type": "function"
    },
    {
      "constant": false,
      "inputs": [
        {
          "name": "countryName",
          "type": "string"
        }
      ],
      "name": "deleteCountry",
      "outputs": [
        {
          "name": "success",
          "type": "bool"
        }
      ],
      "payable": false,
      "stateMutability": "nonpayable",
      "type": "function"
    },
    {
      "constant": true,
      "inputs": [
        {
          "name": "countryName",
          "type": "string"
        }
      ],
      "name": "getCountry",
      "outputs": [
        {
          "name": "name",
          "type": "string"
        },
        {
          "name": "leader",
          "type": "string"
        },
        {
          "name": "population",
          "type": "uint256"
        }
      ],
      "payable": false,
      "stateMutability": "view",
      "type": "function"
    },
    {
      "constant": true,
      "inputs": [
        {
          "name": "a",
          "type": "string"
        },
        {
          "name": "b",
          "type": "string"
        }
      ],
      "name": "compareStrings",
      "outputs": [
        {
          "name": "",
          "type": "bool"
        }
      ],
      "payable": false,
      "stateMutability": "view",
      "type": "function"
    },
    {
      "constant": true,
      "inputs": [],
      "name": "getTotalCountries",
      "outputs": [
        {
          "name": "length",
          "type": "uint256"
        }
      ],
      "payable": false,
      "stateMutability": "view",
      "type": "function"
    }
  ],
  "bytecode": "0x608060405234801561001057600080fd5b506000600181905550611500806100286000396000f30060806040526004361061008e576000357c0100000000000000000000000000000000000000000000000000000000900463ffffffff16806308e9daa51461009357806362738129146101ac57806381ba02be146101d7578063848924cb1461029e578063acf75458146103f3578063bed34bba1461041e578063c1356d26146104e5578063cae65058146105b2575b600080fd5b34801561009f57600080fd5b506100be60048036038101908080359060200190929190505050610633565b604051808060200180602001848152602001838103835286818151815260200191508051906020019080838360005b838110156101085780820151818401526020810190506100ed565b50505050905090810190601f1680156101355780820380516001836020036101000a031916815260200191505b50838103825285818151815260200191508051906020019080838360005b8381101561016e578082015181840152602081019050610153565b50505050905090810190601f16801561019b5780820380516001836020036101000a031916815260200191505b509550505050505060405180910390f35b3480156101b857600080fd5b506101c161079c565b6040518082815260200191505060405180910390f35b3480156101e357600080fd5b50610284600480360381019080803590602001908201803590602001908080601f0160208091040260200160405190810160405280939291908181526020018383808284378201915050505050509192919290803590602001908201803590602001908080601f01602080910402602001604051908101604052809392919081815260200183838082843782019150505050505091929192905050506107a2565b604051808215151515815260200191505060405180910390f35b3480156102aa57600080fd5b50610305600480360381019080803590602001908201803590602001908080601f01602080910402602001604051908101604052809392919081815260200183838082843782019150505050505091929192905050506109db565b604051808060200180602001848152602001838103835286818151815260200191508051906020019080838360005b8381101561034f578082015181840152602081019050610334565b50505050905090810190601f16801561037c5780820380516001836020036101000a031916815260200191505b50838103825285818151815260200191508051906020019080838360005b838110156103b557808201518184015260208101905061039a565b50505050905090810190601f1680156103e25780820380516001836020036101000a031916815260200191505b509550505050505060405180910390f35b3480156103ff57600080fd5b50610408610cde565b6040518082815260200191505060405180910390f35b34801561042a57600080fd5b506104cb600480360381019080803590602001908201803590602001908080601f0160208091040260200160405190810160405280939291908181526020018383808284378201915050505050509192919290803590602001908201803590602001908080601f0160208091040260200160405190810160405280939291908181526020018383808284378201915050505050509192919290505050610cea565b604051808215151515815260200191505060405180910390f35b3480156104f157600080fd5b5061059c600480360381019080803590602001908201803590602001908080601f0160208091040260200160405190810160405280939291908181526020018383808284378201915050505050509192919290803590602001908201803590602001908080601f016020809104026020016040519081016040528093929190818152602001838380828437820191505050505050919291929080359060200190929190505050610dc3565b6040518082815260200191505060405180910390f35b3480156105be57600080fd5b50610619600480360381019080803590602001908201803590602001908080601f0160208091040260200160405190810160405280939291908181526020018383808284378201915050505050509192919290505050610f8e565b604051808215151515815260200191505060405180910390f35b60008181548110151561064257fe5b9060005260206000209060030201600091509050806000018054600181600116156101000203166002900480601f0160208091040260200160405190810160405280929190818152602001828054600181600116156101000203166002900480156106ee5780601f106106c3576101008083540402835291602001916106ee565b820191906000526020600020905b8154815290600101906020018083116106d157829003601f168201915b505050505090806001018054600181600116156101000203166002900480601f01602080910402602001604051908101604052809291908181526020018280546001816001161561010002031660029004801561078c5780601f106107615761010080835404028352916020019161078c565b820191906000526020600020905b81548152906001019060200180831161076f57829003601f168201915b5050505050908060020154905083565b60015481565b600080600090505b6001548110156109cf576108766000828154811015156107c657fe5b90600052602060002090600302016000018054600181600116156101000203166002900480601f01602080910402602001604051908101604052809291908181526020018280546001816001161561010002031660029004801561086b5780601f106108405761010080835404028352916020019161086b565b820191906000526020600020905b81548152906001019060200180831161084e57829003601f168201915b505050505085610cea565b156109c2578260008281548110151561088b57fe5b906000526020600020906003020160010190805190602001906108af929190611245565b507fdcbffcd2bd990a26d28efebebb6f9a7a35f2abf2f0e25720c56a457fce2211588484604051808060200180602001838103835285818151815260200191508051906020019080838360005b838110156109175780820151818401526020810190506108fc565b50505050905090810190601f1680156109445780820380516001836020036101000a031916815260200191505b50838103825284818151815260200191508051906020019080838360005b8381101561097d578082015181840152602081019050610962565b50505050905090810190601f1680156109aa5780820380516001836020036101000a031916815260200191505b5094505050505060405180910390a1600191506109d4565b80806001019150506107aa565b600091505b5092915050565b606080600080600090505b600154811015610c6857610ab2600082815481101515610a0257fe5b90600052602060002090600302016000018054600181600116156101000203166002900480601f016020809104026020016040519081016040528092919081815260200182805460018160011615610100020316600290048015610aa75780601f10610a7c57610100808354040283529160200191610aa7565b820191906000526020600020905b815481529060010190602001808311610a8a57829003601f168201915b505050505086610cea565b15610c5b57600081815481101515610ac657fe5b9060005260206000209060030201600001600082815481101515610ae657fe5b9060005260206000209060030201600101600083815481101515610b0657fe5b906000526020600020906003020160020154828054600181600116156101000203166002900480601f016020809104026020016040519081016040528092919081815260200182805460018160011615610100020316600290048015610bad5780601f10610b8257610100808354040283529160200191610bad565b820191906000526020600020905b815481529060010190602001808311610b9057829003601f168201915b50505050509250818054600181600116156101000203166002900480601f016020809104026020016040519081016040528092919081815260200182805460018160011615610100020316600290048015610c495780601f10610c1e57610100808354040283529160200191610c49565b820191906000526020600020905b815481529060010190602001808311610c2c57829003601f168201915b50505050509150935093509350610cd6565b80806001019150506109e6565b6040517f08c379a00000000000000000000000000000000000000000000000000000000081526004018080602001828103825260118152602001807f636f756e747279206e6f7420666f756e6400000000000000000000000000000081525060200191505060405180910390fd5b509193909250565b60008080549050905090565b6000816040518082805190602001908083835b602083101515610d225780518252602082019150602081019050602083039250610cfd565b6001836020036101000a038019825116818451168082178552505050505050905001915050604051809103902060001916836040518082805190602001908083835b602083101515610d895780518252602082019150602081019050602083039250610d64565b6001836020036101000a03801982511681845116808217855250505050505090500191505060405180910390206000191614905092915050565b6000610dcd6112c5565b606060405190810160405280868152602001858152602001848152509050600081908060018154018082558091505090600182039060005260206000209060030201600090919290919091506000820151816000019080519060200190610e359291906112e7565b506020820151816001019080519060200190610e529291906112e7565b50604082015181600201555050506001600081548092919060010191905055507f0468dc69df7bee8f1d38fbb57d4c42ac20476b6d66c4477d41c677b7e2d63893858585604051808060200180602001848152602001838103835286818151815260200191508051906020019080838360005b83811015610ee0578082015181840152602081019050610ec5565b50505050905090810190601f168015610f0d5780820380516001836020036101000a031916815260200191505b50838103825285818151815260200191508051906020019080838360005b83811015610f46578082015181840152602081019050610f2b565b50505050905090810190601f168015610f735780820380516001836020036101000a031916815260200191505b509550505050505060405180910390a1819150509392505050565b6000806000600154111515610fa257600080fd5b600090505b60015481101561123a57611073600082815481101515610fc357fe5b90600052602060002090600302016000018054600181600116156101000203166002900480601f0160208091040260200160405190810160405280929190818152602001828054600181600116156101000203166002900480156110685780601f1061103d57610100808354040283529160200191611068565b820191906000526020600020905b81548152906001019060200180831161104b57829003601f168201915b505050505084610cea565b1561122d576000600180540381548110151561108b57fe5b90600052602060002090600302016000828154811015156110a857fe5b9060005260206000209060030201600082018160000190805460018160011615610100020316600290046110dd929190611367565b5060018201816001019080546001816001161561010002031660029004611105929190611367565b50600282015481600201559050506000600180540381548110151561112657fe5b90600052602060002090600302016000808201600061114591906113ee565b60018201600061115591906113ee565b600282016000905550506001600081548092919060019003919050555060008054809190600190036111879190611436565b507f1aae94a171c3e578099f7103bbb8a169533e0d22f84eb9807747a1c5bebbbc41836040518080602001828103825283818151815260200191508051906020019080838360005b838110156111ea5780820151818401526020810190506111cf565b50505050905090810190601f1680156112175780820380516001836020036101000a031916815260200191505b509250505060405180910390a16001915061123f565b8080600101915050610fa7565b600091505b50919050565b828054600181600116156101000203166002900490600052602060002090601f016020900481019282601f1061128657805160ff19168380011785556112b4565b828001600101855582156112b4579182015b828111156112b3578251825591602001919060010190611298565b5b5090506112c19190611468565b5090565b6060604051908101604052806060815260200160608152602001600081525090565b828054600181600116156101000203166002900490600052602060002090601f016020900481019282601f1061132857805160ff1916838001178555611356565b82800160010185558215611356579182015b8281111561135557825182559160200191906001019061133a565b5b5090506113639190611468565b5090565b828054600181600116156101000203166002900490600052602060002090601f016020900481019282601f106113a057805485556113dd565b828001600101855582156113dd57600052602060002091601f016020900482015b828111156113dc5782548255916001019190600101906113c1565b5b5090506113ea9190611468565b5090565b50805460018160011615610100020316600290046000825580601f106114145750611433565b601f0160209004906000526020600020908101906114329190611468565b5b50565b81548183558181111561146357600302816003028360005260206000209182019101611462919061148d565b5b505050565b61148a91905b8082111561148657600081600090555060010161146e565b5090565b90565b6114d191905b808211156114cd57600080820160006114ac91906113ee565b6001820160006114bc91906113ee565b600282016000905550600301611493565b5090565b905600a165627a7a723058207b707ab805b9a5f1e898d8ff5759e8f0ffd47f8f15e8b98f452872d3d4a62e5c0029",
  "source": "pragma solidity ^0.4.23;\n\ncontract CrudApp {\n    \n   struct country{\n      string name;\n      string leader;\n      uint256 population;\n   }\n  \n   country[] public countries; \n\n   uint256 public totalCountries;\n  \n  \n    constructor() public {\n       totalCountries = 0;\n   }\n\n   event CountryEvent(string countryName , string leader, uint256 population);\n   \n   event LeaderUpdated(string countryName , string leader);\n\n   event CountryDelete(string countryName);\n\n    \n   function insert( string countryName , string leader , uint256 population) public returns (uint256 total){\n        country memory newCountry = country(countryName , leader, population);\n        countries.push(newCountry);\n        totalCountries++;\n        //emit event\n        emit CountryEvent (countryName, leader, population);\n        return total;\n   }\n   \n   function updateLeader(string countryName, string newLeader) public returns (bool success){\n       //This has a problem we need loop\n       for(uint256 i =0; i< totalCountries; i++){\n           if(compareStrings(countries[i].name ,countryName)){\n              countries[i].leader = newLeader;\n              emit LeaderUpdated(countryName, newLeader);\n              return true;\n           }\n       }\n       return false;\n   }\n   \n   function deleteCountry(string countryName) public returns(bool success){\n        require(totalCountries > 0);\n        for(uint256 i =0; i< totalCountries; i++){\n           if(compareStrings(countries[i].name , countryName)){\n              countries[i] = countries[totalCountries-1]; // pushing last into current arrray index which we gonna delete\n              delete countries[totalCountries-1]; // now deleteing last index\n              totalCountries--; //total count decrease\n              countries.length--; // array length decrease\n              //emit event\n              emit CountryDelete(countryName);\n              return true;\n           }\n       }\n       return false;\n   }\n   \n     \n   function getCountry(string countryName) public view returns(string name , string leader , uint256 population){\n        for(uint256 i =0; i< totalCountries; i++){\n           if(compareStrings(countries[i].name, countryName)){\n              //emit event\n              return (countries[i].name , countries[i].leader , countries[i].population);\n           }\n       }\n       revert('country not found');\n   }     \n   \n   function compareStrings (string a, string b) public view returns (bool){\n       return keccak256(a) == keccak256(b);\n   }\n   \n   \n   function getTotalCountries() public view returns (uint256 length){\n      return countries.length;\n   }\n}",
  "sourcePath": "/home/batman/code/solidityCrud/contracts/CrudApp.sol",
  "compiler": {
    "name": "solc",
    "version": "0.4.24+commit.e67f0147.Emscripten.clang"
  },
  "schemaVersion": "2.0.1",
  "updatedAt": "2018-10-08T17:33:16.158Z"
}