{
  "contractName": "CrudApp",
  "abi": [
    {
      "constant": true,
      "inputs": [
        {
          "name": "",
          "type": "uint256"
        }
      ],
      "name": "countries",
      "outputs": [
        {
          "name": "name",
          "type": "string"
        },
        {
          "name": "leader",
          "type": "string"
        },
        {
          "name": "population",
          "type": "uint256"
        }
      ],
      "payable": false,
      "stateMutability": "view",
      "type": "function"
    },
    {
      "constant": true,
      "inputs": [],
      "name": "totalCountries",
      "outputs": [
        {
          "name": "",
          "type": "uint256"
        }
      ],
      "payable": false,
      "stateMutability": "view",
      "type": "function"
    },
    {
      "constant": false,
      "inputs": [],
      "name": "CurdApp",
      "outputs": [],
      "payable": false,
      "stateMutability": "nonpayable",
      "type": "function"
    },
    {
      "constant": false,
      "inputs": [
        {
          "name": "name",
          "type": "string"
        },
        {
          "name": "leader",
          "type": "string"
        },
        {
          "name": "population",
          "type": "uint256"
        }
      ],
      "name": "insert",
      "outputs": [
        {
          "name": "total",
          "type": "uint256"
        }
      ],
      "payable": false,
      "stateMutability": "nonpayable",
      "type": "function"
    },
    {
      "constant": false,
      "inputs": [
        {
          "name": "countryName",
          "type": "string"
        },
        {
          "name": "newLeader",
          "type": "string"
        }
      ],
      "name": "updateLeader",
      "outputs": [
        {
          "name": "success",
          "type": "bool"
        }
      ],
      "payable": false,
      "stateMutability": "nonpayable",
      "type": "function"
    },
    {
      "constant": false,
      "inputs": [
        {
          "name": "countryName",
          "type": "string"
        }
      ],
      "name": "deleteCountry",
      "outputs": [
        {
          "name": "success",
          "type": "bool"
        }
      ],
      "payable": false,
      "stateMutability": "nonpayable",
      "type": "function"
    },
    {
      "constant": true,
      "inputs": [
        {
          "name": "countryName",
          "type": "string"
        }
      ],
      "name": "getCountry",
      "outputs": [
        {
          "name": "name",
          "type": "string"
        },
        {
          "name": "leader",
          "type": "string"
        },
        {
          "name": "population",
          "type": "uint256"
        }
      ],
      "payable": false,
      "stateMutability": "view",
      "type": "function"
    },
    {
      "constant": true,
      "inputs": [
        {
          "name": "a",
          "type": "string"
        },
        {
          "name": "b",
          "type": "string"
        }
      ],
      "name": "compareStrings",
      "outputs": [
        {
          "name": "",
          "type": "bool"
        }
      ],
      "payable": false,
      "stateMutability": "view",
      "type": "function"
    },
    {
      "constant": true,
      "inputs": [],
      "name": "getArrayLength",
      "outputs": [
        {
          "name": "length",
          "type": "uint256"
        }
      ],
      "payable": false,
      "stateMutability": "view",
      "type": "function"
    }
  ],
  "bytecode": "0x608060405234801561001057600080fd5b5061120d806100206000396000f300608060405260043610610099576000357c0100000000000000000000000000000000000000000000000000000000900463ffffffff1680630849cc991461009e57806308e9daa5146100c95780631ac9ddbb146101e257806362738129146101f957806381ba02be14610224578063848924cb146102eb578063bed34bba14610440578063c1356d2614610507578063cae65058146105d4575b600080fd5b3480156100aa57600080fd5b506100b3610655565b6040518082815260200191505060405180910390f35b3480156100d557600080fd5b506100f460048036038101908080359060200190929190505050610661565b604051808060200180602001848152602001838103835286818151815260200191508051906020019080838360005b8381101561013e578082015181840152602081019050610123565b50505050905090810190601f16801561016b5780820380516001836020036101000a031916815260200191505b50838103825285818151815260200191508051906020019080838360005b838110156101a4578082015181840152602081019050610189565b50505050905090810190601f1680156101d15780820380516001836020036101000a031916815260200191505b509550505050505060405180910390f35b3480156101ee57600080fd5b506101f76107ca565b005b34801561020557600080fd5b5061020e6107d4565b6040518082815260200191505060405180910390f35b34801561023057600080fd5b506102d1600480360381019080803590602001908201803590602001908080601f0160208091040260200160405190810160405280939291908181526020018383808284378201915050505050509192919290803590602001908201803590602001908080601f01602080910402602001604051908101604052809392919081815260200183838082843782019150505050505091929192905050506107da565b604051808215151515815260200191505060405180910390f35b3480156102f757600080fd5b50610352600480360381019080803590602001908201803590602001908080601f016020809104026020016040519081016040528093929190818152602001838380828437820191505050505050919291929050505061090a565b604051808060200180602001848152602001838103835286818151815260200191508051906020019080838360005b8381101561039c578082015181840152602081019050610381565b50505050905090810190601f1680156103c95780820380516001836020036101000a031916815260200191505b50838103825285818151815260200191508051906020019080838360005b838110156104025780820151818401526020810190506103e7565b50505050905090810190601f16801561042f5780820380516001836020036101000a031916815260200191505b509550505050505060405180910390f35b34801561044c57600080fd5b506104ed600480360381019080803590602001908201803590602001908080601f0160208091040260200160405190810160405280939291908181526020018383808284378201915050505050509192919290803590602001908201803590602001908080601f0160208091040260200160405190810160405280939291908181526020018383808284378201915050505050509192919290505050610ba4565b604051808215151515815260200191505060405180910390f35b34801561051357600080fd5b506105be600480360381019080803590602001908201803590602001908080601f0160208091040260200160405190810160405280939291908181526020018383808284378201915050505050509192919290803590602001908201803590602001908080601f016020809104026020016040519081016040528093929190818152602001838380828437820191505050505050919291929080359060200190929190505050610c7d565b6040518082815260200191505060405180910390f35b3480156105e057600080fd5b5061063b600480360381019080803590602001908201803590602001908080601f0160208091040260200160405190810160405280939291908181526020018383808284378201915050505050509192919290505050610d37565b604051808215151515815260200191505060405180910390f35b60008080549050905090565b60008181548110151561067057fe5b9060005260206000209060030201600091509050806000018054600181600116156101000203166002900480601f01602080910402602001604051908101604052809291908181526020018280546001816001161561010002031660029004801561071c5780601f106106f15761010080835404028352916020019161071c565b820191906000526020600020905b8154815290600101906020018083116106ff57829003601f168201915b505050505090806001018054600181600116156101000203166002900480601f0160208091040260200160405190810160405280929190818152602001828054600181600116156101000203166002900480156107ba5780601f1061078f576101008083540402835291602001916107ba565b820191906000526020600020905b81548152906001019060200180831161079d57829003601f168201915b5050505050908060020154905083565b6000600181905550565b60015481565b600080600090505b6001548110156108fe576108ae6000828154811015156107fe57fe5b90600052602060002090600302016000018054600181600116156101000203166002900480601f0160208091040260200160405190810160405280929190818152602001828054600181600116156101000203166002900480156108a35780601f10610878576101008083540402835291602001916108a3565b820191906000526020600020905b81548152906001019060200180831161088657829003601f168201915b505050505085610ba4565b156108f157826000828154811015156108c357fe5b906000526020600020906003020160010190805190602001906108e7929190610f52565b5060019150610903565b80806001019150506107e2565b600091505b5092915050565b606080600080600090505b600154811015610b97576109e160008281548110151561093157fe5b90600052602060002090600302016000018054600181600116156101000203166002900480601f0160208091040260200160405190810160405280929190818152602001828054600181600116156101000203166002900480156109d65780601f106109ab576101008083540402835291602001916109d6565b820191906000526020600020905b8154815290600101906020018083116109b957829003601f168201915b505050505086610ba4565b15610b8a576000818154811015156109f557fe5b9060005260206000209060030201600001600082815481101515610a1557fe5b9060005260206000209060030201600101600083815481101515610a3557fe5b906000526020600020906003020160020154828054600181600116156101000203166002900480601f016020809104026020016040519081016040528092919081815260200182805460018160011615610100020316600290048015610adc5780601f10610ab157610100808354040283529160200191610adc565b820191906000526020600020905b815481529060010190602001808311610abf57829003601f168201915b50505050509250818054600181600116156101000203166002900480601f016020809104026020016040519081016040528092919081815260200182805460018160011615610100020316600290048015610b785780601f10610b4d57610100808354040283529160200191610b78565b820191906000526020600020905b815481529060010190602001808311610b5b57829003601f168201915b50505050509150935093509350610b9c565b8080600101915050610915565b600080fd5b509193909250565b6000816040518082805190602001908083835b602083101515610bdc5780518252602082019150602081019050602083039250610bb7565b6001836020036101000a038019825116818451168082178552505050505050905001915050604051809103902060001916836040518082805190602001908083835b602083101515610c435780518252602082019150602081019050602083039250610c1e565b6001836020036101000a03801982511681845116808217855250505050505090500191505060405180910390206000191614905092915050565b6000610c87610fd2565b606060405190810160405280868152602001858152602001848152509050600081908060018154018082558091505090600182039060005260206000209060030201600090919290919091506000820151816000019080519060200190610cef929190610ff4565b506020820151816001019080519060200190610d0c929190610ff4565b5060408201518160020155505050600160008154809291906001019190505550819150509392505050565b6000806000600154111515610d4b57600080fd5b600090505b600154811015610f4757610e1c600082815481101515610d6c57fe5b90600052602060002090600302016000018054600181600116156101000203166002900480601f016020809104026020016040519081016040528092919081815260200182805460018160011615610100020316600290048015610e115780601f10610de657610100808354040283529160200191610e11565b820191906000526020600020905b815481529060010190602001808311610df457829003601f168201915b505050505084610ba4565b15610f3a5760006001805403815481101515610e3457fe5b9060005260206000209060030201600082815481101515610e5157fe5b906000526020600020906003020160008201816000019080546001816001161561010002031660029004610e86929190611074565b5060018201816001019080546001816001161561010002031660029004610eae929190611074565b506002820154816002015590505060006001805403815481101515610ecf57fe5b906000526020600020906003020160008082016000610eee91906110fb565b600182016000610efe91906110fb565b60028201600090555050600160008154809291906001900391905055506000805480919060019003610f309190611143565b5060019150610f4c565b8080600101915050610d50565b600091505b50919050565b828054600181600116156101000203166002900490600052602060002090601f016020900481019282601f10610f9357805160ff1916838001178555610fc1565b82800160010185558215610fc1579182015b82811115610fc0578251825591602001919060010190610fa5565b5b509050610fce9190611175565b5090565b6060604051908101604052806060815260200160608152602001600081525090565b828054600181600116156101000203166002900490600052602060002090601f016020900481019282601f1061103557805160ff1916838001178555611063565b82800160010185558215611063579182015b82811115611062578251825591602001919060010190611047565b5b5090506110709190611175565b5090565b828054600181600116156101000203166002900490600052602060002090601f016020900481019282601f106110ad57805485556110ea565b828001600101855582156110ea57600052602060002091601f016020900482015b828111156110e95782548255916001019190600101906110ce565b5b5090506110f79190611175565b5090565b50805460018160011615610100020316600290046000825580601f106111215750611140565b601f01602090049060005260206000209081019061113f9190611175565b5b50565b8154818355818111156111705760030281600302836000526020600020918201910161116f919061119a565b5b505050565b61119791905b8082111561119357600081600090555060010161117b565b5090565b90565b6111de91905b808211156111da57600080820160006111b991906110fb565b6001820160006111c991906110fb565b6002820160009055506003016111a0565b5090565b905600a165627a7a7230582046634b3fa89d8aa3dc839d0ec2cdf236ccd5c2646fb4a0a0072c467f86c3cd900029",
  "source": "pragma solidity ^0.4.23;\n\ncontract CrudApp {\n    \n   struct country{\n      string name;\n      string leader;\n      uint256 population;\n   }\n  \n   country[] public countries; \n\n   uint256 public totalCountries;\n  \n  \n   function CurdApp() public{\n       totalCountries = 0;\n   }\n   \n    \n   function insert( string name , string leader , uint256 population) public returns (uint256 total){\n        country memory newCountry = country(name , leader, population);\n        countries.push(newCountry);\n        totalCountries++;\n        //emit event\n        return total;\n   }\n   \n   function updateLeader(string countryName, string newLeader) public returns (bool success){\n       //This has a problem we need loop\n       for(uint256 i =0; i< totalCountries; i++){\n           if(compareStrings(countries[i].name ,countryName)){\n              countries[i].leader = newLeader;\n              //emit event\n              return true;\n           }\n       }\n       return false;\n   }\n   \n   function deleteCountry(string countryName) public returns(bool success){\n        require(totalCountries > 0);\n        for(uint256 i =0; i< totalCountries; i++){\n           if(compareStrings(countries[i].name , countryName)){\n              countries[i] = countries[totalCountries-1]; // pushing last into current arrray index which we gonna delete\n              delete countries[totalCountries-1]; // now deleteing last index\n              totalCountries--; //total count decrease\n              countries.length--; // array length decrease\n              //emit event\n              return true;\n           }\n       }\n       return false;\n   }\n   \n   \n   function getCountry(string countryName) public view returns(string name , string leader , uint256 population){\n        for(uint256 i =0; i< totalCountries; i++){\n           if(compareStrings(countries[i].name, countryName)){\n              //emit event\n              return (countries[i].name , countries[i].leader , countries[i].population);\n           }\n       }\n       revert();\n   }     \n   \n   function compareStrings (string a, string b) public view returns (bool){\n       return keccak256(a) == keccak256(b);\n   }\n   \n   \n   function getArrayLength() public view returns (uint256 length){\n      return countries.length;\n   }\n}",
  "sourcePath": "/home/batman/code/solidityCrud/contracts/CrudApp.sol",
  "compiler": {
    "name": "solc",
    "version": "0.4.24+commit.e67f0147.Emscripten.clang"
  },
  "schemaVersion": "2.0.1",
  "updatedAt": "2018-09-30T10:14:00.830Z"
}